{
  "contractName": "SupplyChain",
  "abi": [
    {
      "anonymous": false,
      "inputs": [
        {
          "indexed": false,
          "internalType": "uint256",
          "name": "index",
          "type": "uint256"
        }
      ],
      "name": "Added",
      "type": "event"
    },
    {
      "inputs": [
        {
          "internalType": "string",
          "name": "_a",
          "type": "string"
        },
        {
          "internalType": "string",
          "name": "_b",
          "type": "string"
        }
      ],
      "name": "concat",
      "outputs": [
        {
          "internalType": "string",
          "name": "",
          "type": "string"
        }
      ],
      "stateMutability": "pure",
      "type": "function",
      "constant": true
    },
    {
      "inputs": [
        {
          "internalType": "string",
          "name": "_text",
          "type": "string"
        },
        {
          "internalType": "string",
          "name": "_date",
          "type": "string"
        },
        {
          "internalType": "string",
          "name": "p_quality",
          "type": "string"
        },
        {
          "internalType": "uint256",
          "name": "pid",
          "type": "uint256"
        }
      ],
      "name": "newItem",
      "outputs": [
        {
          "internalType": "bool",
          "name": "",
          "type": "bool"
        }
      ],
      "stateMutability": "nonpayable",
      "type": "function"
    },
    {
      "inputs": [
        {
          "internalType": "uint256",
          "name": "_productId",
          "type": "uint256"
        },
        {
          "internalType": "string",
          "name": "info",
          "type": "string"
        }
      ],
      "name": "addState",
      "outputs": [
        {
          "internalType": "string",
          "name": "",
          "type": "string"
        }
      ],
      "stateMutability": "nonpayable",
      "type": "function"
    },
    {
      "inputs": [
        {
          "internalType": "uint256",
          "name": "_productId",
          "type": "uint256"
        }
      ],
      "name": "searchProduct",
      "outputs": [
        {
          "internalType": "string",
          "name": "",
          "type": "string"
        }
      ],
      "stateMutability": "view",
      "type": "function",
      "constant": true
    }
  ],
  "bytecode": "0x6080604052600060015534801561001557600080fd5b50610d1b806100256000396000f3fe608060405234801561001057600080fd5b506004361061004c5760003560e01c80633cde01b514610051578063453bccb6146100e357806389c19ddb14610190578063e1d5922a146102bd575b600080fd5b61006e6004803603602081101561006757600080fd5b5035610487565b6040805160208082528351818301528351919283929083019185019080838360005b838110156100a8578181015183820152602001610090565b50505050905090810190601f1680156100d55780820380516001836020036101000a031916815260200191505b509250505060405180910390f35b61006e600480360360408110156100f957600080fd5b8135919081019060408101602082013564010000000081111561011b57600080fd5b82018360208201111561012d57600080fd5b8035906020019184600183028401116401000000008311171561014f57600080fd5b91908080601f016020809104026020016040519081016040528093929190818152602001838380828437600092019190915250929550610816945050505050565b61006e600480360360408110156101a657600080fd5b8101906020810181356401000000008111156101c157600080fd5b8201836020820111156101d357600080fd5b803590602001918460018302840111640100000000831117156101f557600080fd5b91908080601f016020809104026020016040519081016040528093929190818152602001838380828437600092019190915250929594936020810193503591505064010000000081111561024857600080fd5b82018360208201111561025a57600080fd5b8035906020019184600183028401116401000000008311171561027c57600080fd5b91908080601f0160208091040260200160405190810160405280939291908181526020018383808284376000920191909152509295506108d8945050505050565b610473600480360360808110156102d357600080fd5b8101906020810181356401000000008111156102ee57600080fd5b82018360208201111561030057600080fd5b8035906020019184600183028401116401000000008311171561032257600080fd5b91908080601f016020809104026020016040519081016040528093929190818152602001838380828437600092019190915250929594936020810193503591505064010000000081111561037557600080fd5b82018360208201111561038757600080fd5b803590602001918460018302840111640100000000831117156103a957600080fd5b91908080601f01602080910402602001604051908101604052809392919081815260200183838082843760009201919091525092959493602081019350359150506401000000008111156103fc57600080fd5b82018360208201111561040e57600080fd5b8035906020019184600183028401116401000000008311171561043057600080fd5b91908080601f01602080910402602001604051908101604052809392919081815260200183838082843760009201919091525092955050913592506109cf915050565b604080519115158252519081900360200190f35b606060015482111561049857600080fd5b604080518082018252600e81527f50726f64756374204e616d653a200000000000000000000000000000000000006020808301919091526000858152808252839020600190810180548551600293821615610100026000190190911692909204601f810184900484028301840190955284825292936105719385939091908301828280156105675780601f1061053c57610100808354040283529160200191610567565b820191906000526020600020905b81548152906001019060200180831161054a57829003601f168201915b50505050506108d8565b90506105b2816040518060400160405280601681526020017f3c62723e4d616e756661637475726520446174653a20000000000000000000008152506108d8565b6000848152602081815260409182902060030180548351601f60026000196101006001861615020190931692909204918201849004840281018401909452808452939450610623938593928301828280156105675780601f1061053c57610100808354040283529160200191610567565b9050610664816040518060400160405280601581526020017f3c62723e50726f64756374205175616c6974793a2000000000000000000000008152506108d8565b6000848152602081815260409182902060040180548351601f600260001961010060018616150201909316929092049182018490048402810184019094528084529394506106d5938593928301828280156105675780601f1061053c57610100808354040283529160200191610567565b905060005b60008481526020819052604090206005015481101561080d57610732826040518060400160405280600d81526020017f3c62723e4c6f636174696f6e20000000000000000000000000000000000000008152506108d8565b91506107498261074483600101610aff565b6108d8565b915061078a826040518060400160405280600281526020017f3a200000000000000000000000000000000000000000000000000000000000008152506108d8565b60008581526020818152604080832085845260060182529182902080548351601f60026000196101006001861615020190931692909204918201849004840281018401909452808452939550610803938693928301828280156105675780601f1061053c57610100808354040283529160200191610567565b91506001016106da565b5090505b919050565b606060015483111561082757600080fd5b61082f610be6565b506040805180820182528381523360208083019190915260008681528082528381206005810154825260060182529290922081518051929384936108769284920190610bfe565b506020918201516001918201805473ffffffffffffffffffffffffffffffffffffffff191673ffffffffffffffffffffffffffffffffffffffff9092169190911790556000958652908590526040909420600501805490940190935550919050565b6060808390506060839050606081518351016040519080825280601f01601f191660200182016040528015610914576020820181803883390190505b509050806000805b855181101561096d5785818151811061093157fe5b602001015160f81c60f81b83838060010194508151811061094e57fe5b60200101906001600160f81b031916908160001a90535060010161091c565b5060005b84518110156109c25784818151811061098657fe5b602001015160f81c60f81b8383806001019450815181106109a357fe5b60200101906001600160f81b031916908160001a905350600101610971565b5090979650505050505050565b60006109d9610c7c565b506040805160c08101825233815260208082018881528284018690526060830188905260808301879052600060a08401819052868152808352939093208251815473ffffffffffffffffffffffffffffffffffffffff191673ffffffffffffffffffffffffffffffffffffffff90911617815592518051929384939092610a67926001850192910190610bfe565b506040820151600282015560608201518051610a8d916003840191602090910190610bfe565b5060808201518051610aa9916004840191602090910190610bfe565b5060a091909101516005909101556001805480820190915560408051918252517f64a55044d1f2eddebe1b90e8e2853e8e96931cefadbfa0b2ceb34bee360619419181900360200190a150600195945050505050565b606081610b40575060408051808201909152600181527f30000000000000000000000000000000000000000000000000000000000000006020820152610811565b8160005b8115610b5857600101600a82049150610b44565b6060816040519080825280601f01601f191660200182016040528015610b85576020820181803883390190505b509050815b8515610bdd57600019016000600a8704600a028703603001905060008160f81b905080848481518110610bb957fe5b60200101906001600160f81b031916908160001a905350600a880497505050610b8a565b50949350505050565b60408051808201909152606081526000602082015290565b828054600181600116156101000203166002900490600052602060002090601f016020900481019282601f10610c3f57805160ff1916838001178555610c6c565b82800160010185558215610c6c579182015b82811115610c6c578251825591602001919060010190610c51565b50610c78929150610cc8565b5090565b6040518060c00160405280600073ffffffffffffffffffffffffffffffffffffffff16815260200160608152602001600081526020016060815260200160608152602001600081525090565b610ce291905b80821115610c785760008155600101610cce565b9056fea2646970667358221220eb50de07c67c8dd1afe4b6f1e3ecb03e25316e0f951d0f419f01d40f6aee090964736f6c63430006000033",
  "source": "// SPDX-License-Identifier: GPL-3.0\n\npragma solidity ^0.6.0;\n\ncontract SupplyChain {\n    event Added(uint256 index);\n\n    struct State {\n        string description;\n        address person;\n    }\n\n    struct Product {\n        address creator;\n        string productName;\n        uint256 productId;\n        string date;\n        string quality;\n        uint256 totalStates;\n        mapping(uint256 => State) positions;\n    }\n\n    mapping(uint256 => Product) allProducts;\n    uint256 items = 0;\n\n    function uint2str(uint256 _i)\n        internal\n        pure\n        returns (string memory _uintAsString)\n    {\n        if (_i == 0) {\n            return \"0\";\n        }\n        uint256 j = _i;\n        uint256 len;\n        while (j != 0) {\n            len++;\n            j /= 10;\n        }\n        bytes memory bstr = new bytes(len);\n        uint256 k = len;\n        while (_i != 0) {\n            k = k - 1;\n            uint8 temp = (48 + uint8(_i - (_i / 10) * 10));\n            bytes1 b1 = bytes1(temp);\n            bstr[k] = b1;\n            _i /= 10;\n        }\n        return string(bstr);\n    }\n\n    function concat(string memory _a, string memory _b)\n        public\n        pure\n        returns (string memory)\n    {\n        bytes memory bytes_a = bytes(_a);\n        bytes memory bytes_b = bytes(_b);\n        string memory length_ab = new string(bytes_a.length + bytes_b.length);\n        bytes memory bytes_c = bytes(length_ab);\n        uint256 k = 0;\n        for (uint256 i = 0; i < bytes_a.length; i++) bytes_c[k++] = bytes_a[i];\n        for (uint256 i = 0; i < bytes_b.length; i++) bytes_c[k++] = bytes_b[i];\n        return string(bytes_c);\n    }\n\n    function newItem(\n        string memory _text,\n        string memory _date,\n        string memory p_quality,\n        uint256 pid\n    ) public returns (bool) {\n        Product memory newItem = Product({\n            creator: msg.sender,\n            totalStates: 0,\n            productName: _text,\n            productId: pid,\n            date: _date,\n            quality: p_quality\n        });\n        allProducts[pid] = newItem;\n        items = items + 1;\n        emit Added(items - 1);\n        return true;\n    }\n\n    function addState(uint256 _productId, string memory info)\n        public\n        returns (string memory)\n    {\n        require(_productId <= items);\n\n        State memory newState = State({person: msg.sender, description: info});\n\n        allProducts[_productId].positions[\n            allProducts[_productId].totalStates\n        ] = newState;\n\n        allProducts[_productId].totalStates =\n            allProducts[_productId].totalStates +\n            1;\n        return info;\n    }\n\n    function searchProduct(uint256 _productId)\n        public\n        view\n        returns (string memory)\n    {\n        require(_productId <= items);\n        string memory output = \"Product Name: \";\n        output = concat(output, allProducts[_productId].productName);\n        output = concat(output, \"<br>Manufacture Date: \");\n        output = concat(output, allProducts[_productId].date);\n        output = concat(output, \"<br>Product Quality: \");\n        output = concat(output, allProducts[_productId].quality);\n        for (uint256 j = 0; j < allProducts[_productId].totalStates; j++) {\n            output = concat(output, \"<br>Location \");\n            output = concat(output, uint2str(j + 1));\n            output = concat(output, \": \");\n            output = concat(\n                output,\n                allProducts[_productId].positions[j].description\n            );\n        }\n        return output;\n    }\n}\n",
  "sourcePath": "D:\\final mini\\contracts\\SupplyChain.sol",
  "compiler": {
    "name": "solc",
    "version": "0.6.0+commit.26b70077.Emscripten.clang"
  },
  "schemaVersion": "3.4.11",
  "updatedAt": "2022-12-05T20:17:01.599Z",
  "networkType": "ethereum",
  "devdoc": {
    "methods": {}
  },
  "userdoc": {
    "methods": {}
  }
}